{
  "_format": "hh-sol-artifact-1",
  "contractName": "DynamicContribution",
  "sourceName": "contracts/DynamicContribution.sol",
  "abi": [
    {
      "inputs": [
        {
          "internalType": "string",
          "name": "_name",
          "type": "string"
        },
        {
          "internalType": "string",
          "name": "_symbol",
          "type": "string"
        },
        {
          "internalType": "string",
          "name": "_baseURI",
          "type": "string"
        }
      ],
      "stateMutability": "nonpayable",
      "type": "constructor"
    },
    {
      "inputs": [
        {
          "internalType": "uint256",
          "name": "provided",
          "type": "uint256"
        },
        {
          "internalType": "uint256",
          "name": "max",
          "type": "uint256"
        }
      ],
      "name": "Overflow",
      "type": "error"
    },
    {
      "inputs": [
        {
          "internalType": "address",
          "name": "sender",
          "type": "address"
        },
        {
          "internalType": "address",
          "name": "owner",
          "type": "address"
        }
      ],
      "name": "OwnerOnly",
      "type": "error"
    },
    {
      "inputs": [],
      "name": "ReentrancyGuard",
      "type": "error"
    },
    {
      "inputs": [
        {
          "internalType": "uint256",
          "name": "provided",
          "type": "uint256"
        }
      ],
      "name": "WrongTokenId",
      "type": "error"
    },
    {
      "inputs": [],
      "name": "ZeroAddress",
      "type": "error"
    },
    {
      "inputs": [],
      "name": "ZeroValue",
      "type": "error"
    },
    {
      "anonymous": false,
      "inputs": [
        {
          "indexed": true,
          "internalType": "address",
          "name": "owner",
          "type": "address"
        },
        {
          "indexed": true,
          "internalType": "address",
          "name": "spender",
          "type": "address"
        },
        {
          "indexed": true,
          "internalType": "uint256",
          "name": "id",
          "type": "uint256"
        }
      ],
      "name": "Approval",
      "type": "event"
    },
    {
      "anonymous": false,
      "inputs": [
        {
          "indexed": true,
          "internalType": "address",
          "name": "owner",
          "type": "address"
        },
        {
          "indexed": true,
          "internalType": "address",
          "name": "operator",
          "type": "address"
        },
        {
          "indexed": false,
          "internalType": "bool",
          "name": "approved",
          "type": "bool"
        }
      ],
      "name": "ApprovalForAll",
      "type": "event"
    },
    {
      "anonymous": false,
      "inputs": [
        {
          "indexed": false,
          "internalType": "string",
          "name": "baseURI",
          "type": "string"
        }
      ],
      "name": "BaseURIChanged",
      "type": "event"
    },
    {
      "anonymous": false,
      "inputs": [
        {
          "indexed": true,
          "internalType": "address",
          "name": "owner",
          "type": "address"
        }
      ],
      "name": "OwnerUpdated",
      "type": "event"
    },
    {
      "anonymous": false,
      "inputs": [
        {
          "indexed": true,
          "internalType": "address",
          "name": "from",
          "type": "address"
        },
        {
          "indexed": true,
          "internalType": "address",
          "name": "to",
          "type": "address"
        },
        {
          "indexed": true,
          "internalType": "uint256",
          "name": "id",
          "type": "uint256"
        }
      ],
      "name": "Transfer",
      "type": "event"
    },
    {
      "inputs": [
        {
          "internalType": "address",
          "name": "spender",
          "type": "address"
        },
        {
          "internalType": "uint256",
          "name": "id",
          "type": "uint256"
        }
      ],
      "name": "approve",
      "outputs": [],
      "stateMutability": "nonpayable",
      "type": "function"
    },
    {
      "inputs": [
        {
          "internalType": "address",
          "name": "owner",
          "type": "address"
        }
      ],
      "name": "balanceOf",
      "outputs": [
        {
          "internalType": "uint256",
          "name": "",
          "type": "uint256"
        }
      ],
      "stateMutability": "view",
      "type": "function"
    },
    {
      "inputs": [],
      "name": "baseURI",
      "outputs": [
        {
          "internalType": "string",
          "name": "",
          "type": "string"
        }
      ],
      "stateMutability": "view",
      "type": "function"
    },
    {
      "inputs": [
        {
          "internalType": "address",
          "name": "newOwner",
          "type": "address"
        }
      ],
      "name": "changeOwner",
      "outputs": [],
      "stateMutability": "nonpayable",
      "type": "function"
    },
    {
      "inputs": [
        {
          "internalType": "uint256",
          "name": "tokenId",
          "type": "uint256"
        }
      ],
      "name": "exists",
      "outputs": [
        {
          "internalType": "bool",
          "name": "",
          "type": "bool"
        }
      ],
      "stateMutability": "view",
      "type": "function"
    },
    {
      "inputs": [
        {
          "internalType": "uint256",
          "name": "",
          "type": "uint256"
        }
      ],
      "name": "getApproved",
      "outputs": [
        {
          "internalType": "address",
          "name": "",
          "type": "address"
        }
      ],
      "stateMutability": "view",
      "type": "function"
    },
    {
      "inputs": [
        {
          "internalType": "address",
          "name": "",
          "type": "address"
        },
        {
          "internalType": "address",
          "name": "",
          "type": "address"
        }
      ],
      "name": "isApprovedForAll",
      "outputs": [
        {
          "internalType": "bool",
          "name": "",
          "type": "bool"
        }
      ],
      "stateMutability": "view",
      "type": "function"
    },
    {
      "inputs": [],
      "name": "mint",
      "outputs": [
        {
          "internalType": "uint256",
          "name": "tokenId",
          "type": "uint256"
        }
      ],
      "stateMutability": "nonpayable",
      "type": "function"
    },
    {
      "inputs": [
        {
          "internalType": "address",
          "name": "account",
          "type": "address"
        }
      ],
      "name": "mintFor",
      "outputs": [
        {
          "internalType": "uint256",
          "name": "tokenId",
          "type": "uint256"
        }
      ],
      "stateMutability": "nonpayable",
      "type": "function"
    },
    {
      "inputs": [],
      "name": "name",
      "outputs": [
        {
          "internalType": "string",
          "name": "",
          "type": "string"
        }
      ],
      "stateMutability": "view",
      "type": "function"
    },
    {
      "inputs": [],
      "name": "owner",
      "outputs": [
        {
          "internalType": "address",
          "name": "",
          "type": "address"
        }
      ],
      "stateMutability": "view",
      "type": "function"
    },
    {
      "inputs": [
        {
          "internalType": "uint256",
          "name": "id",
          "type": "uint256"
        }
      ],
      "name": "ownerOf",
      "outputs": [
        {
          "internalType": "address",
          "name": "owner",
          "type": "address"
        }
      ],
      "stateMutability": "view",
      "type": "function"
    },
    {
      "inputs": [
        {
          "internalType": "address",
          "name": "from",
          "type": "address"
        },
        {
          "internalType": "address",
          "name": "to",
          "type": "address"
        },
        {
          "internalType": "uint256",
          "name": "id",
          "type": "uint256"
        }
      ],
      "name": "safeTransferFrom",
      "outputs": [],
      "stateMutability": "nonpayable",
      "type": "function"
    },
    {
      "inputs": [
        {
          "internalType": "address",
          "name": "from",
          "type": "address"
        },
        {
          "internalType": "address",
          "name": "to",
          "type": "address"
        },
        {
          "internalType": "uint256",
          "name": "id",
          "type": "uint256"
        },
        {
          "internalType": "bytes",
          "name": "data",
          "type": "bytes"
        }
      ],
      "name": "safeTransferFrom",
      "outputs": [],
      "stateMutability": "nonpayable",
      "type": "function"
    },
    {
      "inputs": [
        {
          "internalType": "address",
          "name": "operator",
          "type": "address"
        },
        {
          "internalType": "bool",
          "name": "approved",
          "type": "bool"
        }
      ],
      "name": "setApprovalForAll",
      "outputs": [],
      "stateMutability": "nonpayable",
      "type": "function"
    },
    {
      "inputs": [
        {
          "internalType": "string",
          "name": "bURI",
          "type": "string"
        }
      ],
      "name": "setBaseURI",
      "outputs": [],
      "stateMutability": "nonpayable",
      "type": "function"
    },
    {
      "inputs": [
        {
          "internalType": "bytes4",
          "name": "interfaceId",
          "type": "bytes4"
        }
      ],
      "name": "supportsInterface",
      "outputs": [
        {
          "internalType": "bool",
          "name": "",
          "type": "bool"
        }
      ],
      "stateMutability": "view",
      "type": "function"
    },
    {
      "inputs": [],
      "name": "symbol",
      "outputs": [
        {
          "internalType": "string",
          "name": "",
          "type": "string"
        }
      ],
      "stateMutability": "view",
      "type": "function"
    },
    {
      "inputs": [
        {
          "internalType": "uint256",
          "name": "id",
          "type": "uint256"
        }
      ],
      "name": "tokenByIndex",
      "outputs": [
        {
          "internalType": "uint256",
          "name": "tokenId",
          "type": "uint256"
        }
      ],
      "stateMutability": "view",
      "type": "function"
    },
    {
      "inputs": [
        {
          "internalType": "uint256",
          "name": "tokenId",
          "type": "uint256"
        }
      ],
      "name": "tokenURI",
      "outputs": [
        {
          "internalType": "string",
          "name": "",
          "type": "string"
        }
      ],
      "stateMutability": "view",
      "type": "function"
    },
    {
      "inputs": [],
      "name": "totalSupply",
      "outputs": [
        {
          "internalType": "uint256",
          "name": "",
          "type": "uint256"
        }
      ],
      "stateMutability": "view",
      "type": "function"
    },
    {
      "inputs": [
        {
          "internalType": "address",
          "name": "from",
          "type": "address"
        },
        {
          "internalType": "address",
          "name": "to",
          "type": "address"
        },
        {
          "internalType": "uint256",
          "name": "id",
          "type": "uint256"
        }
      ],
      "name": "transferFrom",
      "outputs": [],
      "stateMutability": "nonpayable",
      "type": "function"
    }
  ],
  "bytecode": "0x60806040526001600955348015610014575f5ffd5b50604051611efa380380611efa83398101604081905261003391610117565b82825f610040838261022a565b50600161004d828261022a565b506007915061005e9050828261022a565b5050600680546001600160a01b03191633179055506102e49050565b634e487b7160e01b5f52604160045260245ffd5b5f82601f83011261009d575f5ffd5b81516001600160401b038111156100b6576100b661007a565b604051601f8201601f19908116603f011681016001600160401b03811182821017156100e4576100e461007a565b6040528181528382016020018510156100fb575f5ffd5b8160208501602083015e5f918101602001919091529392505050565b5f5f5f60608486031215610129575f5ffd5b83516001600160401b0381111561013e575f5ffd5b61014a8682870161008e565b602086015190945090506001600160401b03811115610167575f5ffd5b6101738682870161008e565b604086015190935090506001600160401b03811115610190575f5ffd5b61019c8682870161008e565b9150509250925092565b600181811c908216806101ba57607f821691505b6020821081036101d857634e487b7160e01b5f52602260045260245ffd5b50919050565b601f82111561022557805f5260205f20601f840160051c810160208510156102035750805b601f840160051c820191505b81811015610222575f815560010161020f565b50505b505050565b81516001600160401b038111156102435761024361007a565b6102578161025184546101a6565b846101de565b6020601f821160018114610289575f83156102725750848201515b5f19600385901b1c1916600184901b178455610222565b5f84815260208120601f198516915b828110156102b85787850151825560209485019460019092019101610298565b50848210156102d557868401515f19600387901b60f8161c191681555b50505050600190811b01905550565b611c09806102f15f395ff3fe608060405234801561000f575f5ffd5b5060043610610179575f3560e01c80636352211e116100d257806395d89b4111610088578063b88d4fde11610063578063b88d4fde14610336578063c87b56dd14610349578063e985e9c51461035c575f5ffd5b806395d89b4114610308578063a22cb46514610310578063a6f9dae114610323575f5ffd5b806370a08231116100b857806370a08231146102c257806371e578dc146102d55780638da5cb5b146102e8575f5ffd5b80636352211e146102a75780636c0360eb146102ba575f5ffd5b806318160ddd116101325780634f558e791161010d5780634f558e791461026e5780634f6ccce71461028157806355f804b314610294575f5ffd5b806318160ddd1461023f57806323b872dd1461024857806342842e0e1461025b575f5ffd5b8063081812fc11610162578063081812fc146101ba578063095ea7b3146102145780631249c58b14610229575f5ffd5b806301ffc9a71461017d57806306fdde03146101a5575b5f5ffd5b61019061018b366004611524565b610389565b60405190151581526020015b60405180910390f35b6101ad61046d565b60405161019c9190611546565b6101ef6101c8366004611599565b60046020525f908152604090205473ffffffffffffffffffffffffffffffffffffffff1681565b60405173ffffffffffffffffffffffffffffffffffffffff909116815260200161019c565b6102276102223660046115d3565b6104f8565b005b610231610644565b60405190815260200161019c565b61023160085481565b6102276102563660046115fb565b6106b0565b6102276102693660046115fb565b610973565b61019061027c366004611599565b610ad9565b61023161028f366004611599565b610afa565b6102276102a2366004611662565b610b57565b6101ef6102b5366004611599565b610c4b565b6101ad610cd6565b6102316102d0366004611752565b610ce3565b6102316102e3366004611752565b610d89565b6006546101ef9073ffffffffffffffffffffffffffffffffffffffff1681565b6101ad610df7565b61022761031e36600461176b565b610e04565b610227610331366004611752565b610e9a565b6102276103443660046117a4565b610fc8565b6101ad610357366004611599565b61111f565b61019061036a366004611839565b600560209081525f928352604080842090915290825290205460ff1681565b5f7f01ffc9a7000000000000000000000000000000000000000000000000000000007fffffffff000000000000000000000000000000000000000000000000000000008316148061041b57507f80ac58cd000000000000000000000000000000000000000000000000000000007fffffffff000000000000000000000000000000000000000000000000000000008316145b8061046757507f5b5e139f000000000000000000000000000000000000000000000000000000007fffffffff000000000000000000000000000000000000000000000000000000008316145b92915050565b5f80546104799061186a565b80601f01602080910402602001604051908101604052809291908181526020018280546104a59061186a565b80156104f05780601f106104c7576101008083540402835291602001916104f0565b820191905f5260205f20905b8154815290600101906020018083116104d357829003601f168201915b505050505081565b5f8181526002602052604090205473ffffffffffffffffffffffffffffffffffffffff1633811480610559575073ffffffffffffffffffffffffffffffffffffffff81165f90815260056020908152604080832033845290915290205460ff165b6105c4576040517f08c379a000000000000000000000000000000000000000000000000000000000815260206004820152600e60248201527f4e4f545f415554484f52495a454400000000000000000000000000000000000060448201526064015b60405180910390fd5b5f8281526004602052604080822080547fffffffffffffffffffffffff00000000000000000000000000000000000000001673ffffffffffffffffffffffffffffffffffffffff87811691821790925591518593918516917f8c5be1e5ebec7d5bd14f71427d1e84f3dd0314c0f7b2291e5b200ac8c7c3b92591a4505050565b5f60016009541115610682576040517f8beb9d1600000000000000000000000000000000000000000000000000000000815260040160405180910390fd5b50600260095560085480610695816118e8565b600881905591506106a89050338261119b565b600160095590565b5f8181526002602052604090205473ffffffffffffffffffffffffffffffffffffffff84811691161461073f576040517f08c379a000000000000000000000000000000000000000000000000000000000815260206004820152600a60248201527f57524f4e475f46524f4d0000000000000000000000000000000000000000000060448201526064016105bb565b73ffffffffffffffffffffffffffffffffffffffff82166107bc576040517f08c379a000000000000000000000000000000000000000000000000000000000815260206004820152601160248201527f494e56414c49445f524543495049454e5400000000000000000000000000000060448201526064016105bb565b3373ffffffffffffffffffffffffffffffffffffffff8416148061080f575073ffffffffffffffffffffffffffffffffffffffff83165f90815260056020908152604080832033845290915290205460ff165b8061083c57505f8181526004602052604090205473ffffffffffffffffffffffffffffffffffffffff1633145b6108a2576040517f08c379a000000000000000000000000000000000000000000000000000000000815260206004820152600e60248201527f4e4f545f415554484f52495a454400000000000000000000000000000000000060448201526064016105bb565b73ffffffffffffffffffffffffffffffffffffffff8084165f81815260036020908152604080832080547fffffffffffffffffffffffffffffffffffffffffffffffffffffffffffffffff019055938616808352848320805460010190558583526002825284832080547fffffffffffffffffffffffff00000000000000000000000000000000000000009081168317909155600490925284832080549092169091559251849392917fddf252ad1be2c89b69c2b068fc378daa952ba7f163c4a11628f55a4df523b3ef91a4505050565b61097e8383836106b0565b73ffffffffffffffffffffffffffffffffffffffff82163b1580610a6e57506040517f150b7a020000000000000000000000000000000000000000000000000000000080825233600483015273ffffffffffffffffffffffffffffffffffffffff858116602484015260448301849052608060648401525f608484015290919084169063150b7a029060a4016020604051808303815f875af1158015610a26573d5f5f3e3d5ffd5b505050506040513d601f19601f82011682018060405250810190610a4a919061191f565b7fffffffff0000000000000000000000000000000000000000000000000000000016145b610ad4576040517f08c379a000000000000000000000000000000000000000000000000000000000815260206004820152601060248201527f554e534146455f524543495049454e540000000000000000000000000000000060448201526064016105bb565b505050565b5f5f821180156104675750600854610af290600161193a565b821092915050565b5f610b0682600161193a565b9050600854811115610b52576008546040517f7ae596850000000000000000000000000000000000000000000000000000000081526105bb918391600401918252602082015260400190565b919050565b60065473ffffffffffffffffffffffffffffffffffffffff163314610bca576006546040517fa43d6ada00000000000000000000000000000000000000000000000000000000815233600482015273ffffffffffffffffffffffffffffffffffffffff90911660248201526044016105bb565b80515f03610c04576040517f7c946ed700000000000000000000000000000000000000000000000000000000815260040160405180910390fd5b6007610c108282611991565b507f5411e8ebf1636d9e83d5fc4900bf80cbac82e8790da2a4c94db4895e889eedf681604051610c409190611546565b60405180910390a150565b5f8181526002602052604090205473ffffffffffffffffffffffffffffffffffffffff1680610b52576040517f08c379a000000000000000000000000000000000000000000000000000000000815260206004820152600a60248201527f4e4f545f4d494e5445440000000000000000000000000000000000000000000060448201526064016105bb565b600780546104799061186a565b5f73ffffffffffffffffffffffffffffffffffffffff8216610d61576040517f08c379a000000000000000000000000000000000000000000000000000000000815260206004820152600c60248201527f5a45524f5f41444452455353000000000000000000000000000000000000000060448201526064016105bb565b5073ffffffffffffffffffffffffffffffffffffffff165f9081526003602052604090205490565b5f60016009541115610dc7576040517f8beb9d1600000000000000000000000000000000000000000000000000000000815260040160405180910390fd5b50600260095560085480610dda816118e8565b60088190559150610ded9050828261119b565b6001600955919050565b600180546104799061186a565b335f81815260056020908152604080832073ffffffffffffffffffffffffffffffffffffffff87168085529083529281902080547fffffffffffffffffffffffffffffffffffffffffffffffffffffffffffffff001686151590811790915590519081529192917f17307eab39ab6107e8899845ad3d59bd9653f200f220920489ca2b5937696c31910160405180910390a35050565b60065473ffffffffffffffffffffffffffffffffffffffff163314610f0d576006546040517fa43d6ada00000000000000000000000000000000000000000000000000000000815233600482015273ffffffffffffffffffffffffffffffffffffffff90911660248201526044016105bb565b73ffffffffffffffffffffffffffffffffffffffff8116610f5a576040517fd92e233d00000000000000000000000000000000000000000000000000000000815260040160405180910390fd5b600680547fffffffffffffffffffffffff00000000000000000000000000000000000000001673ffffffffffffffffffffffffffffffffffffffff83169081179091556040517f4ffd725fc4a22075e9ec71c59edf9c38cdeb588a91b24fc5b61388c5be41282b905f90a250565b610fd38585856106b0565b73ffffffffffffffffffffffffffffffffffffffff84163b15806110b257506040517f150b7a02000000000000000000000000000000000000000000000000000000008082529073ffffffffffffffffffffffffffffffffffffffff86169063150b7a029061104e9033908a90899089908990600401611aa8565b6020604051808303815f875af115801561106a573d5f5f3e3d5ffd5b505050506040513d601f19601f8201168201806040525081019061108e919061191f565b7fffffffff0000000000000000000000000000000000000000000000000000000016145b611118576040517f08c379a000000000000000000000000000000000000000000000000000000000815260206004820152601060248201527f554e534146455f524543495049454e540000000000000000000000000000000060448201526064016105bb565b5050505050565b606081158061112f575060085482115b15611169576040517f23f7828a000000000000000000000000000000000000000000000000000000008152600481018390526024016105bb565b6007611174836112fc565b604051602001611185929190611b35565b6040516020818303038152906040529050919050565b6111a5828261135d565b73ffffffffffffffffffffffffffffffffffffffff82163b158061129257506040517f150b7a02000000000000000000000000000000000000000000000000000000008082523360048301525f60248301819052604483018490526080606484015260848301529073ffffffffffffffffffffffffffffffffffffffff84169063150b7a029060a4016020604051808303815f875af115801561124a573d5f5f3e3d5ffd5b505050506040513d601f19601f8201168201806040525081019061126e919061191f565b7fffffffff0000000000000000000000000000000000000000000000000000000016145b6112f8576040517f08c379a000000000000000000000000000000000000000000000000000000000815260206004820152601060248201527f554e534146455f524543495049454e540000000000000000000000000000000060448201526064016105bb565b5050565b606060a06040510180604052602081039150505f815280825b600183039250600a81066030018353600a90048061131557508190037fffffffffffffffffffffffffffffffffffffffffffffffffffffffffffffffe0909101908152919050565b73ffffffffffffffffffffffffffffffffffffffff82166113da576040517f08c379a000000000000000000000000000000000000000000000000000000000815260206004820152601160248201527f494e56414c49445f524543495049454e5400000000000000000000000000000060448201526064016105bb565b5f8181526002602052604090205473ffffffffffffffffffffffffffffffffffffffff1615611465576040517f08c379a000000000000000000000000000000000000000000000000000000000815260206004820152600e60248201527f414c52454144595f4d494e54454400000000000000000000000000000000000060448201526064016105bb565b73ffffffffffffffffffffffffffffffffffffffff82165f81815260036020908152604080832080546001019055848352600290915280822080547fffffffffffffffffffffffff0000000000000000000000000000000000000000168417905551839291907fddf252ad1be2c89b69c2b068fc378daa952ba7f163c4a11628f55a4df523b3ef908290a45050565b7fffffffff0000000000000000000000000000000000000000000000000000000081168114611521575f5ffd5b50565b5f60208284031215611534575f5ffd5b813561153f816114f4565b9392505050565b602081525f82518060208401528060208501604085015e5f6040828501015260407fffffffffffffffffffffffffffffffffffffffffffffffffffffffffffffffe0601f83011684010191505092915050565b5f602082840312156115a9575f5ffd5b5035919050565b803573ffffffffffffffffffffffffffffffffffffffff81168114610b52575f5ffd5b5f5f604083850312156115e4575f5ffd5b6115ed836115b0565b946020939093013593505050565b5f5f5f6060848603121561160d575f5ffd5b611616846115b0565b9250611624602085016115b0565b929592945050506040919091013590565b7f4e487b71000000000000000000000000000000000000000000000000000000005f52604160045260245ffd5b5f60208284031215611672575f5ffd5b813567ffffffffffffffff811115611688575f5ffd5b8201601f81018413611698575f5ffd5b803567ffffffffffffffff8111156116b2576116b2611635565b6040517fffffffffffffffffffffffffffffffffffffffffffffffffffffffffffffffe0603f7fffffffffffffffffffffffffffffffffffffffffffffffffffffffffffffffe0601f8501160116810181811067ffffffffffffffff8211171561171e5761171e611635565b604052818152828201602001861015611735575f5ffd5b816020840160208301375f91810160200191909152949350505050565b5f60208284031215611762575f5ffd5b61153f826115b0565b5f5f6040838503121561177c575f5ffd5b611785836115b0565b915060208301358015158114611799575f5ffd5b809150509250929050565b5f5f5f5f5f608086880312156117b8575f5ffd5b6117c1866115b0565b94506117cf602087016115b0565b935060408601359250606086013567ffffffffffffffff8111156117f1575f5ffd5b8601601f81018813611801575f5ffd5b803567ffffffffffffffff811115611817575f5ffd5b886020828401011115611828575f5ffd5b959894975092955050506020019190565b5f5f6040838503121561184a575f5ffd5b611853836115b0565b9150611861602084016115b0565b90509250929050565b600181811c9082168061187e57607f821691505b6020821081036118b5577f4e487b71000000000000000000000000000000000000000000000000000000005f52602260045260245ffd5b50919050565b7f4e487b71000000000000000000000000000000000000000000000000000000005f52601160045260245ffd5b5f7fffffffffffffffffffffffffffffffffffffffffffffffffffffffffffffffff8203611918576119186118bb565b5060010190565b5f6020828403121561192f575f5ffd5b815161153f816114f4565b80820180821115610467576104676118bb565b601f821115610ad457805f5260205f20601f840160051c810160208510156119725750805b601f840160051c820191505b81811015611118575f815560010161197e565b815167ffffffffffffffff8111156119ab576119ab611635565b6119bf816119b9845461186a565b8461194d565b6020601f821160018114611a10575f83156119da5750848201515b7fffffffffffffffffffffffffffffffffffffffffffffffffffffffffffffffff600385901b1c1916600184901b178455611118565b5f848152602081207fffffffffffffffffffffffffffffffffffffffffffffffffffffffffffffffe08516915b82811015611a5d5787850151825560209485019460019092019101611a3d565b5084821015611a9957868401517fffffffffffffffffffffffffffffffffffffffffffffffffffffffffffffffff600387901b60f8161c191681555b50505050600190811b01905550565b73ffffffffffffffffffffffffffffffffffffffff8616815273ffffffffffffffffffffffffffffffffffffffff8516602082015283604082015260806060820152816080820152818360a08301375f81830160a090810191909152601f9092017fffffffffffffffffffffffffffffffffffffffffffffffffffffffffffffffe0160101949350505050565b5f5f8454611b428161186a565b600182168015611b595760018114611b8c57611bb9565b7fffffffffffffffffffffffffffffffffffffffffffffffffffffffffffffff0083168652811515820286019350611bb9565b875f5260205f205f5b83811015611bb157815488820152600190910190602001611b95565b505081860193505b50505083518060208601835e5f910190815294935050505056fea26469706673582212205ba591ec5bd081df884b1578ec7e4d0eb978c20e2ac0a6df05f7bb2490f59a7364736f6c634300081e0033",
  "linkReferences": {},
  "deployedLinkReferences": {}
}