{
  "_format": "hh-sol-artifact-1",
  "contractName": "DelegateContribute",
  "sourceName": "contracts/DelegateContribute.sol",
  "abi": [
    {
      "inputs": [
        {
          "internalType": "address",
          "name": "_wveOLAS",
          "type": "address"
        }
      ],
      "stateMutability": "nonpayable",
      "type": "constructor"
    },
    {
      "inputs": [
        {
          "internalType": "address",
          "name": "delegator",
          "type": "address"
        },
        {
          "internalType": "address",
          "name": "delegatee",
          "type": "address"
        }
      ],
      "name": "AlreadyDelegatedToSameDelegatee",
      "type": "error"
    },
    {
      "inputs": [
        {
          "internalType": "address",
          "name": "delegator",
          "type": "address"
        }
      ],
      "name": "NoBalance",
      "type": "error"
    },
    {
      "inputs": [
        {
          "internalType": "address",
          "name": "delegator",
          "type": "address"
        }
      ],
      "name": "NoSelfDelegation",
      "type": "error"
    },
    {
      "anonymous": false,
      "inputs": [
        {
          "indexed": true,
          "internalType": "address",
          "name": "delegator",
          "type": "address"
        },
        {
          "indexed": true,
          "internalType": "address",
          "name": "delegatee",
          "type": "address"
        }
      ],
      "name": "Delegation",
      "type": "event"
    },
    {
      "inputs": [
        {
          "internalType": "address",
          "name": "delegatee",
          "type": "address"
        }
      ],
      "name": "delegate",
      "outputs": [],
      "stateMutability": "nonpayable",
      "type": "function"
    },
    {
      "inputs": [
        {
          "internalType": "address",
          "name": "delegatee",
          "type": "address"
        }
      ],
      "name": "getDelegatorList",
      "outputs": [
        {
          "internalType": "address[]",
          "name": "",
          "type": "address[]"
        }
      ],
      "stateMutability": "view",
      "type": "function"
    },
    {
      "inputs": [
        {
          "internalType": "address",
          "name": "",
          "type": "address"
        }
      ],
      "name": "mapDelegation",
      "outputs": [
        {
          "internalType": "address",
          "name": "",
          "type": "address"
        }
      ],
      "stateMutability": "view",
      "type": "function"
    },
    {
      "inputs": [
        {
          "internalType": "address",
          "name": "delegatee",
          "type": "address"
        }
      ],
      "name": "votingPower",
      "outputs": [
        {
          "internalType": "uint256",
          "name": "totalVotingPower",
          "type": "uint256"
        }
      ],
      "stateMutability": "view",
      "type": "function"
    }
  ],
  "bytecode": "0x60a060405234801561001057600080fd5b50604051610b8b380380610b8b83398101604081905261002f91610040565b6001600160a01b0316608052610070565b60006020828403121561005257600080fd5b81516001600160a01b038116811461006957600080fd5b9392505050565b608051610af261009960003960008181610240015281816106ca01526107db0152610af26000f3fe608060405234801561001057600080fd5b506004361061004c5760003560e01c806355c3f662146100515780635c19a95c146100b1578063c07473f6146100c6578063e318df11146100e7575b600080fd5b61008761005f366004610953565b60006020819052908152604090205473ffffffffffffffffffffffffffffffffffffffff1681565b60405173ffffffffffffffffffffffffffffffffffffffff90911681526020015b60405180910390f35b6100c46100bf366004610953565b610107565b005b6100d96100d4366004610953565b610657565b6040519081526020016100a8565b6100fa6100f5366004610953565b6108c3565b6040516100a89190610990565b3373ffffffffffffffffffffffffffffffffffffffff82168103610174576040517fd68a8c2800000000000000000000000000000000000000000000000000000000815273ffffffffffffffffffffffffffffffffffffffff821660048201526024015b60405180910390fd5b73ffffffffffffffffffffffffffffffffffffffff808216600090815260208190526040902054811690831681036101f8576040517f0294b0e000000000000000000000000000000000000000000000000000000000815273ffffffffffffffffffffffffffffffffffffffff80841660048301528416602482015260440161016b565b6040517f70a0823100000000000000000000000000000000000000000000000000000000815273ffffffffffffffffffffffffffffffffffffffff83811660048301526000917f0000000000000000000000000000000000000000000000000000000000000000909116906370a0823190602401602060405180830381865afa158015610289573d6000803e3d6000fd5b505050506040513d601f19601f820116820180604052508101906102ad91906109ea565b905080600003610301576040517f8cb85f5200000000000000000000000000000000000000000000000000000000815273ffffffffffffffffffffffffffffffffffffffff8416600482015260240161016b565b73ffffffffffffffffffffffffffffffffffffffff8216156105265773ffffffffffffffffffffffffffffffffffffffff80831660009081526002602090815260408083209387168352929052205461035b600182610a32565b73ffffffffffffffffffffffffffffffffffffffff841660009081526001602081905260408220805493945091926103939190610a32565b815481106103a3576103a3610a4b565b600091825260208083209091015473ffffffffffffffffffffffffffffffffffffffff8781168452600190925260409092208054919092169250829190849081106103f0576103f0610a4b565b600091825260209091200180547fffffffffffffffffffffffff00000000000000000000000000000000000000001673ffffffffffffffffffffffffffffffffffffffff92909216919091179055610449826001610a7a565b73ffffffffffffffffffffffffffffffffffffffff80861660008181526002602090815260408083209487168352938152838220949094559081526001909252902080548061049a5761049a610a8d565b6000828152602080822083017fffffffffffffffffffffffffffffffffffffffffffffffffffffffffffffffff90810180547fffffffffffffffffffffffff000000000000000000000000000000000000000016905590920190925573ffffffffffffffffffffffffffffffffffffffff86811683526002825260408084209189168452915281205550505b73ffffffffffffffffffffffffffffffffffffffff838116600090815260208190526040902080547fffffffffffffffffffffffff0000000000000000000000000000000000000000169186169182179055156105f75773ffffffffffffffffffffffffffffffffffffffff84811660008181526001602081815260408084208054938401815580855282852090930180547fffffffffffffffffffffffff000000000000000000000000000000000000000016968a16968717905593835290546002825283832094835293905220555b8373ffffffffffffffffffffffffffffffffffffffff168373ffffffffffffffffffffffffffffffffffffffff167fd000f39f92c3ed77f890f16b6ced1555e0ab2cdf470522d2210de67d8c83d45b60405160405180910390a350505050565b73ffffffffffffffffffffffffffffffffffffffff818116600090815260208190526040812054909116610742576040517f9ab24eb000000000000000000000000000000000000000000000000000000000815273ffffffffffffffffffffffffffffffffffffffff83811660048301527f00000000000000000000000000000000000000000000000000000000000000001690639ab24eb090602401602060405180830381865afa158015610711573d6000803e3d6000fd5b505050506040513d601f19601f8201168201806040525081019061073591906109ea565b61073f9082610a7a565b90505b73ffffffffffffffffffffffffffffffffffffffff82166000908152600160209081526040808320805482518185028101850190935280835291929091908301828280156107c657602002820191906000526020600020905b815473ffffffffffffffffffffffffffffffffffffffff16815260019091019060200180831161079b575b5050505050905060005b81518110156108bc577f000000000000000000000000000000000000000000000000000000000000000073ffffffffffffffffffffffffffffffffffffffff16639ab24eb083838151811061082757610827610a4b565b60200260200101516040518263ffffffff1660e01b8152600401610867919073ffffffffffffffffffffffffffffffffffffffff91909116815260200190565b602060405180830381865afa158015610884573d6000803e3d6000fd5b505050506040513d601f19601f820116820180604052508101906108a891906109ea565b6108b29084610a7a565b92506001016107d0565b5050919050565b73ffffffffffffffffffffffffffffffffffffffff811660009081526001602090815260409182902080548351818402810184019094528084526060939283018282801561094757602002820191906000526020600020905b815473ffffffffffffffffffffffffffffffffffffffff16815260019091019060200180831161091c575b50505050509050919050565b60006020828403121561096557600080fd5b813573ffffffffffffffffffffffffffffffffffffffff8116811461098957600080fd5b9392505050565b6020808252825182820181905260009190848201906040850190845b818110156109de57835173ffffffffffffffffffffffffffffffffffffffff16835292840192918401916001016109ac565b50909695505050505050565b6000602082840312156109fc57600080fd5b5051919050565b7f4e487b7100000000000000000000000000000000000000000000000000000000600052601160045260246000fd5b81810381811115610a4557610a45610a03565b92915050565b7f4e487b7100000000000000000000000000000000000000000000000000000000600052603260045260246000fd5b80820180821115610a4557610a45610a03565b7f4e487b7100000000000000000000000000000000000000000000000000000000600052603160045260246000fdfea2646970667358221220c3f9252fe854e814a9a8e25219e1475dc093622e21d5761ad6d595b6ff5139c164736f6c63430008170033",
  "linkReferences": {},
  "deployedLinkReferences": {}
}