{
  "_format": "hh-sol-artifact-1",
  "contractName": "DelegateContribute",
  "sourceName": "contracts/DelegateContribute.sol",
  "abi": [
    {
      "inputs": [
        {
          "internalType": "address",
          "name": "_wveOLAS",
          "type": "address"
        }
      ],
      "stateMutability": "nonpayable",
      "type": "constructor"
    },
    {
      "inputs": [
        {
          "internalType": "address",
          "name": "delegator",
          "type": "address"
        }
      ],
      "name": "NoBalance",
      "type": "error"
    },
    {
      "inputs": [
        {
          "internalType": "address",
          "name": "delegator",
          "type": "address"
        }
      ],
      "name": "NoSelfDelegation",
      "type": "error"
    },
    {
      "anonymous": false,
      "inputs": [
        {
          "indexed": true,
          "internalType": "address",
          "name": "delegator",
          "type": "address"
        },
        {
          "indexed": true,
          "internalType": "address",
          "name": "delegatee",
          "type": "address"
        }
      ],
      "name": "Delegation",
      "type": "event"
    },
    {
      "inputs": [
        {
          "internalType": "address",
          "name": "delegatee",
          "type": "address"
        }
      ],
      "name": "delegate",
      "outputs": [],
      "stateMutability": "nonpayable",
      "type": "function"
    },
    {
      "inputs": [
        {
          "internalType": "address",
          "name": "delegatee",
          "type": "address"
        }
      ],
      "name": "getDelegatorList",
      "outputs": [
        {
          "internalType": "address[]",
          "name": "",
          "type": "address[]"
        }
      ],
      "stateMutability": "view",
      "type": "function"
    },
    {
      "inputs": [
        {
          "internalType": "address",
          "name": "",
          "type": "address"
        }
      ],
      "name": "mapDelegation",
      "outputs": [
        {
          "internalType": "address",
          "name": "",
          "type": "address"
        }
      ],
      "stateMutability": "view",
      "type": "function"
    },
    {
      "inputs": [
        {
          "internalType": "address",
          "name": "delegatee",
          "type": "address"
        }
      ],
      "name": "votingPower",
      "outputs": [
        {
          "internalType": "uint256",
          "name": "totalVotingPower",
          "type": "uint256"
        }
      ],
      "stateMutability": "view",
      "type": "function"
    }
  ],
  "bytecode": "0x60a060405234801561001057600080fd5b50604051610ab7380380610ab783398101604081905261002f91610040565b6001600160a01b0316608052610070565b60006020828403121561005257600080fd5b81516001600160a01b038116811461006957600080fd5b9392505050565b608051610a1e610099600039600081816101bc015281816105f401526107070152610a1e6000f3fe608060405234801561001057600080fd5b506004361061004c5760003560e01c806355c3f662146100515780635c19a95c146100b1578063c07473f6146100c6578063e318df11146100e7575b600080fd5b61008761005f36600461087f565b60006020819052908152604090205473ffffffffffffffffffffffffffffffffffffffff1681565b60405173ffffffffffffffffffffffffffffffffffffffff90911681526020015b60405180910390f35b6100c46100bf36600461087f565b610107565b005b6100d96100d436600461087f565b6105ac565b6040519081526020016100a8565b6100fa6100f536600461087f565b6107ef565b6040516100a891906108bc565b3373ffffffffffffffffffffffffffffffffffffffff82168103610174576040517fd68a8c2800000000000000000000000000000000000000000000000000000000815273ffffffffffffffffffffffffffffffffffffffff821660048201526024015b60405180910390fd5b6040517f70a0823100000000000000000000000000000000000000000000000000000000815273ffffffffffffffffffffffffffffffffffffffff82811660048301526000917f0000000000000000000000000000000000000000000000000000000000000000909116906370a0823190602401602060405180830381865afa158015610205573d6000803e3d6000fd5b505050506040513d601f19601f820116820180604052508101906102299190610916565b90508060000361027d576040517f8cb85f5200000000000000000000000000000000000000000000000000000000815273ffffffffffffffffffffffffffffffffffffffff8316600482015260240161016b565b73ffffffffffffffffffffffffffffffffffffffff8083166000908152602081905260409020541680158015906102e057508373ffffffffffffffffffffffffffffffffffffffff168173ffffffffffffffffffffffffffffffffffffffff1614155b156104ee5773ffffffffffffffffffffffffffffffffffffffff80821660009081526002602090815260408083209387168352929052205461032360018261095e565b73ffffffffffffffffffffffffffffffffffffffff8316600090815260016020819052604082208054939450919261035b919061095e565b8154811061036b5761036b610977565b600091825260208083209091015473ffffffffffffffffffffffffffffffffffffffff8681168452600190925260409092208054919092169250829190849081106103b8576103b8610977565b600091825260209091200180547fffffffffffffffffffffffff00000000000000000000000000000000000000001673ffffffffffffffffffffffffffffffffffffffff929092169190911790556104118260016109a6565b73ffffffffffffffffffffffffffffffffffffffff808516600081815260026020908152604080832094871683529381528382209490945590815260019092529020805480610462576104626109b9565b6000828152602080822083017fffffffffffffffffffffffffffffffffffffffffffffffffffffffffffffffff90810180547fffffffffffffffffffffffff000000000000000000000000000000000000000016905590920190925573ffffffffffffffffffffffffffffffffffffffff85811683526002825260408084209189168452915281205550505b73ffffffffffffffffffffffffffffffffffffffff8084166000818152602081815260408083208054958a167fffffffffffffffffffffffff000000000000000000000000000000000000000096871681179091558084526001808452828520805491820181558086528486209091018054909716861790965580845294546002835281842085855290925280832091909155517fd000f39f92c3ed77f890f16b6ced1555e0ab2cdf470522d2210de67d8c83d45b9190a350505050565b6040517f9ab24eb000000000000000000000000000000000000000000000000000000000815273ffffffffffffffffffffffffffffffffffffffff82811660048301526000917f000000000000000000000000000000000000000000000000000000000000000090911690639ab24eb090602401602060405180830381865afa15801561063d573d6000803e3d6000fd5b505050506040513d601f19601f820116820180604052508101906106619190610916565b61066b90826109a6565b73ffffffffffffffffffffffffffffffffffffffff83166000908152600160209081526040808320805482518185028101850190935280835294955092939092918301828280156106f257602002820191906000526020600020905b815473ffffffffffffffffffffffffffffffffffffffff1681526001909101906020018083116106c7575b5050505050905060005b81518110156107e8577f000000000000000000000000000000000000000000000000000000000000000073ffffffffffffffffffffffffffffffffffffffff16639ab24eb083838151811061075357610753610977565b60200260200101516040518263ffffffff1660e01b8152600401610793919073ffffffffffffffffffffffffffffffffffffffff91909116815260200190565b602060405180830381865afa1580156107b0573d6000803e3d6000fd5b505050506040513d601f19601f820116820180604052508101906107d49190610916565b6107de90846109a6565b92506001016106fc565b5050919050565b73ffffffffffffffffffffffffffffffffffffffff811660009081526001602090815260409182902080548351818402810184019094528084526060939283018282801561087357602002820191906000526020600020905b815473ffffffffffffffffffffffffffffffffffffffff168152600190910190602001808311610848575b50505050509050919050565b60006020828403121561089157600080fd5b813573ffffffffffffffffffffffffffffffffffffffff811681146108b557600080fd5b9392505050565b6020808252825182820181905260009190848201906040850190845b8181101561090a57835173ffffffffffffffffffffffffffffffffffffffff16835292840192918401916001016108d8565b50909695505050505050565b60006020828403121561092857600080fd5b5051919050565b7f4e487b7100000000000000000000000000000000000000000000000000000000600052601160045260246000fd5b818103818111156109715761097161092f565b92915050565b7f4e487b7100000000000000000000000000000000000000000000000000000000600052603260045260246000fd5b808201808211156109715761097161092f565b7f4e487b7100000000000000000000000000000000000000000000000000000000600052603160045260246000fdfea26469706673582212201e4067df1911cbcc200a611f0192bf2aa67ee7375743434683f46afbc9d5dc3f64736f6c63430008170033",
  "linkReferences": {},
  "deployedLinkReferences": {}
}