{
  "_format": "hh-sol-artifact-1",
  "contractName": "DelegateContribute",
  "sourceName": "contracts/DelegateContribute.sol",
  "abi": [
    {
      "inputs": [
        {
          "internalType": "address",
          "name": "_wveOLAS",
          "type": "address"
        }
      ],
      "stateMutability": "nonpayable",
      "type": "constructor"
    },
    {
      "inputs": [
        {
          "internalType": "address",
          "name": "delegator",
          "type": "address"
        }
      ],
      "name": "NoBalance",
      "type": "error"
    },
    {
      "anonymous": false,
      "inputs": [
        {
          "indexed": true,
          "internalType": "address",
          "name": "delegator",
          "type": "address"
        },
        {
          "indexed": true,
          "internalType": "address",
          "name": "delegatee",
          "type": "address"
        }
      ],
      "name": "Delegation",
      "type": "event"
    },
    {
      "inputs": [
        {
          "internalType": "address",
          "name": "delegator",
          "type": "address"
        },
        {
          "internalType": "address",
          "name": "delegatee",
          "type": "address"
        }
      ],
      "name": "delegate",
      "outputs": [],
      "stateMutability": "nonpayable",
      "type": "function"
    },
    {
      "inputs": [
        {
          "internalType": "address",
          "name": "delegatee",
          "type": "address"
        }
      ],
      "name": "getDelegatorList",
      "outputs": [
        {
          "internalType": "address[]",
          "name": "",
          "type": "address[]"
        }
      ],
      "stateMutability": "view",
      "type": "function"
    },
    {
      "inputs": [
        {
          "internalType": "address",
          "name": "",
          "type": "address"
        }
      ],
      "name": "mapDelegation",
      "outputs": [
        {
          "internalType": "address",
          "name": "",
          "type": "address"
        }
      ],
      "stateMutability": "view",
      "type": "function"
    },
    {
      "inputs": [
        {
          "internalType": "address",
          "name": "delegatee",
          "type": "address"
        }
      ],
      "name": "votingPower",
      "outputs": [
        {
          "internalType": "uint256",
          "name": "totalVotingPower",
          "type": "uint256"
        }
      ],
      "stateMutability": "view",
      "type": "function"
    }
  ],
  "bytecode": "0x60a060405234801561001057600080fd5b506040516109c33803806109c383398101604081905261002f91610040565b6001600160a01b0316608052610070565b60006020828403121561005257600080fd5b81516001600160a01b038116811461006957600080fd5b9392505050565b6080516109316100926000396000818161014f01526105d901526109316000f3fe608060405234801561001057600080fd5b506004361061004c5760003560e01c806355c3f662146100515780638ab65686146100b1578063c07473f6146100c6578063e318df11146100e7575b600080fd5b61008761005f36600461077a565b60006020819052908152604090205473ffffffffffffffffffffffffffffffffffffffff1681565b60405173ffffffffffffffffffffffffffffffffffffffff90911681526020015b60405180910390f35b6100c46100bf36600461079c565b610107565b005b6100d96100d436600461077a565b610543565b6040519081526020016100a8565b6100fa6100f536600461077a565b6106c1565b6040516100a891906107cf565b6040517f70a0823100000000000000000000000000000000000000000000000000000000815273ffffffffffffffffffffffffffffffffffffffff83811660048301526000917f0000000000000000000000000000000000000000000000000000000000000000909116906370a0823190602401602060405180830381865afa158015610198573d6000803e3d6000fd5b505050506040513d601f19601f820116820180604052508101906101bc9190610829565b905080600003610214576040517f8cb85f5200000000000000000000000000000000000000000000000000000000815273ffffffffffffffffffffffffffffffffffffffff8416600482015260240160405180910390fd5b73ffffffffffffffffffffffffffffffffffffffff80841660009081526020819052604090205416801580159061027757508273ffffffffffffffffffffffffffffffffffffffff168173ffffffffffffffffffffffffffffffffffffffff1614155b156104855773ffffffffffffffffffffffffffffffffffffffff8082166000908152600260209081526040808320938816835292905220546102ba600182610871565b73ffffffffffffffffffffffffffffffffffffffff831660009081526001602081905260408220805493945091926102f29190610871565b815481106103025761030261088a565b600091825260208083209091015473ffffffffffffffffffffffffffffffffffffffff86811684526001909252604090922080549190921692508291908490811061034f5761034f61088a565b600091825260209091200180547fffffffffffffffffffffffff00000000000000000000000000000000000000001673ffffffffffffffffffffffffffffffffffffffff929092169190911790556103a88260016108b9565b73ffffffffffffffffffffffffffffffffffffffff8085166000818152600260209081526040808320948716835293815283822094909455908152600190925290208054806103f9576103f96108cc565b6000828152602080822083017fffffffffffffffffffffffffffffffffffffffffffffffffffffffffffffffff90810180547fffffffffffffffffffffffff000000000000000000000000000000000000000016905590920190925573ffffffffffffffffffffffffffffffffffffffff8581168352600282526040808420918a168452915281205550505b73ffffffffffffffffffffffffffffffffffffffff80851660008181526020818152604080832080549589167fffffffffffffffffffffffff000000000000000000000000000000000000000096871681179091558084526001808452828520805491820181558086528486209091018054909716861790965580845294546002835281842085855290925280832091909155517fd000f39f92c3ed77f890f16b6ced1555e0ab2cdf470522d2210de67d8c83d45b9190a350505050565b73ffffffffffffffffffffffffffffffffffffffff81166000908152600160209081526040808320805482518185028101850190935280835284938301828280156105c457602002820191906000526020600020905b815473ffffffffffffffffffffffffffffffffffffffff168152600190910190602001808311610599575b5050505050905060005b81518110156106ba577f000000000000000000000000000000000000000000000000000000000000000073ffffffffffffffffffffffffffffffffffffffff16639ab24eb08383815181106106255761062561088a565b60200260200101516040518263ffffffff1660e01b8152600401610665919073ffffffffffffffffffffffffffffffffffffffff91909116815260200190565b602060405180830381865afa158015610682573d6000803e3d6000fd5b505050506040513d601f19601f820116820180604052508101906106a69190610829565b6106b090846108b9565b92506001016105ce565b5050919050565b73ffffffffffffffffffffffffffffffffffffffff811660009081526001602090815260409182902080548351818402810184019094528084526060939283018282801561074557602002820191906000526020600020905b815473ffffffffffffffffffffffffffffffffffffffff16815260019091019060200180831161071a575b50505050509050919050565b803573ffffffffffffffffffffffffffffffffffffffff8116811461077557600080fd5b919050565b60006020828403121561078c57600080fd5b61079582610751565b9392505050565b600080604083850312156107af57600080fd5b6107b883610751565b91506107c660208401610751565b90509250929050565b6020808252825182820181905260009190848201906040850190845b8181101561081d57835173ffffffffffffffffffffffffffffffffffffffff16835292840192918401916001016107eb565b50909695505050505050565b60006020828403121561083b57600080fd5b5051919050565b7f4e487b7100000000000000000000000000000000000000000000000000000000600052601160045260246000fd5b8181038181111561088457610884610842565b92915050565b7f4e487b7100000000000000000000000000000000000000000000000000000000600052603260045260246000fd5b8082018082111561088457610884610842565b7f4e487b7100000000000000000000000000000000000000000000000000000000600052603160045260246000fdfea264697066735822122091eaf74843c7873f7cf880ba969c92d2e9f48f619c329c4ca3c3c56bfc087a0d64736f6c63430008170033",
  "linkReferences": {},
  "deployedLinkReferences": {}
}