{
  "_format": "hh-sol-artifact-1",
  "contractName": "DynamicContribution",
  "sourceName": "contracts/DynamicContribution.sol",
  "abi": [
    {
      "inputs": [
        {
          "internalType": "string",
          "name": "_name",
          "type": "string"
        },
        {
          "internalType": "string",
          "name": "_symbol",
          "type": "string"
        },
        {
          "internalType": "string",
          "name": "_baseURI",
          "type": "string"
        }
      ],
      "stateMutability": "nonpayable",
      "type": "constructor"
    },
    {
      "inputs": [
        {
          "internalType": "uint256",
          "name": "provided",
          "type": "uint256"
        },
        {
          "internalType": "uint256",
          "name": "max",
          "type": "uint256"
        }
      ],
      "name": "Overflow",
      "type": "error"
    },
    {
      "inputs": [
        {
          "internalType": "address",
          "name": "sender",
          "type": "address"
        },
        {
          "internalType": "address",
          "name": "owner",
          "type": "address"
        }
      ],
      "name": "OwnerOnly",
      "type": "error"
    },
    {
      "inputs": [],
      "name": "ReentrancyGuard",
      "type": "error"
    },
    {
      "inputs": [
        {
          "internalType": "uint256",
          "name": "provided",
          "type": "uint256"
        }
      ],
      "name": "WrongTokenId",
      "type": "error"
    },
    {
      "inputs": [],
      "name": "ZeroAddress",
      "type": "error"
    },
    {
      "inputs": [],
      "name": "ZeroValue",
      "type": "error"
    },
    {
      "anonymous": false,
      "inputs": [
        {
          "indexed": true,
          "internalType": "address",
          "name": "owner",
          "type": "address"
        },
        {
          "indexed": true,
          "internalType": "address",
          "name": "spender",
          "type": "address"
        },
        {
          "indexed": true,
          "internalType": "uint256",
          "name": "id",
          "type": "uint256"
        }
      ],
      "name": "Approval",
      "type": "event"
    },
    {
      "anonymous": false,
      "inputs": [
        {
          "indexed": true,
          "internalType": "address",
          "name": "owner",
          "type": "address"
        },
        {
          "indexed": true,
          "internalType": "address",
          "name": "operator",
          "type": "address"
        },
        {
          "indexed": false,
          "internalType": "bool",
          "name": "approved",
          "type": "bool"
        }
      ],
      "name": "ApprovalForAll",
      "type": "event"
    },
    {
      "anonymous": false,
      "inputs": [
        {
          "indexed": false,
          "internalType": "string",
          "name": "baseURI",
          "type": "string"
        }
      ],
      "name": "BaseURIChanged",
      "type": "event"
    },
    {
      "anonymous": false,
      "inputs": [
        {
          "indexed": true,
          "internalType": "address",
          "name": "owner",
          "type": "address"
        }
      ],
      "name": "OwnerUpdated",
      "type": "event"
    },
    {
      "anonymous": false,
      "inputs": [
        {
          "indexed": true,
          "internalType": "address",
          "name": "from",
          "type": "address"
        },
        {
          "indexed": true,
          "internalType": "address",
          "name": "to",
          "type": "address"
        },
        {
          "indexed": true,
          "internalType": "uint256",
          "name": "id",
          "type": "uint256"
        }
      ],
      "name": "Transfer",
      "type": "event"
    },
    {
      "inputs": [
        {
          "internalType": "address",
          "name": "spender",
          "type": "address"
        },
        {
          "internalType": "uint256",
          "name": "id",
          "type": "uint256"
        }
      ],
      "name": "approve",
      "outputs": [],
      "stateMutability": "nonpayable",
      "type": "function"
    },
    {
      "inputs": [
        {
          "internalType": "address",
          "name": "owner",
          "type": "address"
        }
      ],
      "name": "balanceOf",
      "outputs": [
        {
          "internalType": "uint256",
          "name": "",
          "type": "uint256"
        }
      ],
      "stateMutability": "view",
      "type": "function"
    },
    {
      "inputs": [],
      "name": "baseURI",
      "outputs": [
        {
          "internalType": "string",
          "name": "",
          "type": "string"
        }
      ],
      "stateMutability": "view",
      "type": "function"
    },
    {
      "inputs": [
        {
          "internalType": "address",
          "name": "newOwner",
          "type": "address"
        }
      ],
      "name": "changeOwner",
      "outputs": [],
      "stateMutability": "nonpayable",
      "type": "function"
    },
    {
      "inputs": [
        {
          "internalType": "uint256",
          "name": "tokenId",
          "type": "uint256"
        }
      ],
      "name": "exists",
      "outputs": [
        {
          "internalType": "bool",
          "name": "",
          "type": "bool"
        }
      ],
      "stateMutability": "view",
      "type": "function"
    },
    {
      "inputs": [
        {
          "internalType": "uint256",
          "name": "",
          "type": "uint256"
        }
      ],
      "name": "getApproved",
      "outputs": [
        {
          "internalType": "address",
          "name": "",
          "type": "address"
        }
      ],
      "stateMutability": "view",
      "type": "function"
    },
    {
      "inputs": [
        {
          "internalType": "address",
          "name": "",
          "type": "address"
        },
        {
          "internalType": "address",
          "name": "",
          "type": "address"
        }
      ],
      "name": "isApprovedForAll",
      "outputs": [
        {
          "internalType": "bool",
          "name": "",
          "type": "bool"
        }
      ],
      "stateMutability": "view",
      "type": "function"
    },
    {
      "inputs": [],
      "name": "mint",
      "outputs": [
        {
          "internalType": "uint256",
          "name": "tokenId",
          "type": "uint256"
        }
      ],
      "stateMutability": "nonpayable",
      "type": "function"
    },
    {
      "inputs": [
        {
          "internalType": "address",
          "name": "account",
          "type": "address"
        }
      ],
      "name": "mintFor",
      "outputs": [
        {
          "internalType": "uint256",
          "name": "tokenId",
          "type": "uint256"
        }
      ],
      "stateMutability": "nonpayable",
      "type": "function"
    },
    {
      "inputs": [],
      "name": "name",
      "outputs": [
        {
          "internalType": "string",
          "name": "",
          "type": "string"
        }
      ],
      "stateMutability": "view",
      "type": "function"
    },
    {
      "inputs": [],
      "name": "owner",
      "outputs": [
        {
          "internalType": "address",
          "name": "",
          "type": "address"
        }
      ],
      "stateMutability": "view",
      "type": "function"
    },
    {
      "inputs": [
        {
          "internalType": "uint256",
          "name": "id",
          "type": "uint256"
        }
      ],
      "name": "ownerOf",
      "outputs": [
        {
          "internalType": "address",
          "name": "owner",
          "type": "address"
        }
      ],
      "stateMutability": "view",
      "type": "function"
    },
    {
      "inputs": [
        {
          "internalType": "address",
          "name": "from",
          "type": "address"
        },
        {
          "internalType": "address",
          "name": "to",
          "type": "address"
        },
        {
          "internalType": "uint256",
          "name": "id",
          "type": "uint256"
        }
      ],
      "name": "safeTransferFrom",
      "outputs": [],
      "stateMutability": "nonpayable",
      "type": "function"
    },
    {
      "inputs": [
        {
          "internalType": "address",
          "name": "from",
          "type": "address"
        },
        {
          "internalType": "address",
          "name": "to",
          "type": "address"
        },
        {
          "internalType": "uint256",
          "name": "id",
          "type": "uint256"
        },
        {
          "internalType": "bytes",
          "name": "data",
          "type": "bytes"
        }
      ],
      "name": "safeTransferFrom",
      "outputs": [],
      "stateMutability": "nonpayable",
      "type": "function"
    },
    {
      "inputs": [
        {
          "internalType": "address",
          "name": "operator",
          "type": "address"
        },
        {
          "internalType": "bool",
          "name": "approved",
          "type": "bool"
        }
      ],
      "name": "setApprovalForAll",
      "outputs": [],
      "stateMutability": "nonpayable",
      "type": "function"
    },
    {
      "inputs": [
        {
          "internalType": "string",
          "name": "bURI",
          "type": "string"
        }
      ],
      "name": "setBaseURI",
      "outputs": [],
      "stateMutability": "nonpayable",
      "type": "function"
    },
    {
      "inputs": [
        {
          "internalType": "bytes4",
          "name": "interfaceId",
          "type": "bytes4"
        }
      ],
      "name": "supportsInterface",
      "outputs": [
        {
          "internalType": "bool",
          "name": "",
          "type": "bool"
        }
      ],
      "stateMutability": "view",
      "type": "function"
    },
    {
      "inputs": [],
      "name": "symbol",
      "outputs": [
        {
          "internalType": "string",
          "name": "",
          "type": "string"
        }
      ],
      "stateMutability": "view",
      "type": "function"
    },
    {
      "inputs": [
        {
          "internalType": "uint256",
          "name": "id",
          "type": "uint256"
        }
      ],
      "name": "tokenByIndex",
      "outputs": [
        {
          "internalType": "uint256",
          "name": "tokenId",
          "type": "uint256"
        }
      ],
      "stateMutability": "view",
      "type": "function"
    },
    {
      "inputs": [
        {
          "internalType": "uint256",
          "name": "tokenId",
          "type": "uint256"
        }
      ],
      "name": "tokenURI",
      "outputs": [
        {
          "internalType": "string",
          "name": "",
          "type": "string"
        }
      ],
      "stateMutability": "view",
      "type": "function"
    },
    {
      "inputs": [],
      "name": "totalSupply",
      "outputs": [
        {
          "internalType": "uint256",
          "name": "",
          "type": "uint256"
        }
      ],
      "stateMutability": "view",
      "type": "function"
    },
    {
      "inputs": [
        {
          "internalType": "address",
          "name": "from",
          "type": "address"
        },
        {
          "internalType": "address",
          "name": "to",
          "type": "address"
        },
        {
          "internalType": "uint256",
          "name": "id",
          "type": "uint256"
        }
      ],
      "name": "transferFrom",
      "outputs": [],
      "stateMutability": "nonpayable",
      "type": "function"
    }
  ],
  "bytecode": "0x6080604052600160095534801562000015575f80fd5b5060405162001f2c38038062001f2c833981016040819052620000389162000147565b82825f6200004783826200025c565b5060016200005682826200025c565b506007915062000069905082826200025c565b5050600680546001600160a01b0319163317905550620003289050565b634e487b7160e01b5f52604160045260245ffd5b5f82601f830112620000aa575f80fd5b81516001600160401b0380821115620000c757620000c762000086565b604051601f8301601f19908116603f01168101908282118183101715620000f257620000f262000086565b81604052838152602092508660208588010111156200010f575f80fd5b5f91505b8382101562000132578582018301518183018401529082019062000113565b5f602085830101528094505050505092915050565b5f805f606084860312156200015a575f80fd5b83516001600160401b038082111562000171575f80fd5b6200017f878388016200009a565b9450602086015191508082111562000195575f80fd5b620001a3878388016200009a565b93506040860151915080821115620001b9575f80fd5b50620001c8868287016200009a565b9150509250925092565b600181811c90821680620001e757607f821691505b6020821081036200020657634e487b7160e01b5f52602260045260245ffd5b50919050565b601f8211156200025757805f5260205f20601f840160051c81016020851015620002335750805b601f840160051c820191505b8181101562000254575f81556001016200023f565b50505b505050565b81516001600160401b0381111562000278576200027862000086565b6200029081620002898454620001d2565b846200020c565b602080601f831160018114620002c6575f8415620002ae5750858301515b5f19600386901b1c1916600185901b17855562000320565b5f85815260208120601f198616915b82811015620002f657888601518255948401946001909101908401620002d5565b50858210156200031457878501515f19600388901b60f8161c191681555b505060018460011b0185555b505050505050565b611bf680620003365f395ff3fe608060405234801561000f575f80fd5b5060043610610179575f3560e01c80636352211e116100d257806395d89b4111610088578063b88d4fde11610063578063b88d4fde14610336578063c87b56dd14610349578063e985e9c51461035c575f80fd5b806395d89b4114610308578063a22cb46514610310578063a6f9dae114610323575f80fd5b806370a08231116100b857806370a08231146102c257806371e578dc146102d55780638da5cb5b146102e8575f80fd5b80636352211e146102a75780636c0360eb146102ba575f80fd5b806318160ddd116101325780634f558e791161010d5780634f558e791461026e5780634f6ccce71461028157806355f804b314610294575f80fd5b806318160ddd1461023f57806323b872dd1461024857806342842e0e1461025b575f80fd5b8063081812fc11610162578063081812fc146101ba578063095ea7b3146102145780631249c58b14610229575f80fd5b806301ffc9a71461017d57806306fdde03146101a5575b5f80fd5b61019061018b366004611524565b610389565b60405190151581526020015b60405180910390f35b6101ad61046d565b60405161019c9190611568565b6101ef6101c83660046115b8565b60046020525f908152604090205473ffffffffffffffffffffffffffffffffffffffff1681565b60405173ffffffffffffffffffffffffffffffffffffffff909116815260200161019c565b6102276102223660046115f2565b6104f8565b005b610231610644565b60405190815260200161019c565b61023160085481565b61022761025636600461161a565b6106b0565b61022761026936600461161a565b610973565b61019061027c3660046115b8565b610ad9565b61023161028f3660046115b8565b610afa565b6102276102a2366004611680565b610b57565b6101ef6102b53660046115b8565b610c4b565b6101ad610cd6565b6102316102d0366004611749565b610ce3565b6102316102e3366004611749565b610d89565b6006546101ef9073ffffffffffffffffffffffffffffffffffffffff1681565b6101ad610df7565b61022761031e366004611762565b610e04565b610227610331366004611749565b610e9a565b61022761034436600461179b565b610fc8565b6101ad6103573660046115b8565b61111f565b61019061036a36600461182e565b600560209081525f928352604080842090915290825290205460ff1681565b5f7f01ffc9a7000000000000000000000000000000000000000000000000000000007fffffffff000000000000000000000000000000000000000000000000000000008316148061041b57507f80ac58cd000000000000000000000000000000000000000000000000000000007fffffffff000000000000000000000000000000000000000000000000000000008316145b8061046757507f5b5e139f000000000000000000000000000000000000000000000000000000007fffffffff000000000000000000000000000000000000000000000000000000008316145b92915050565b5f80546104799061185f565b80601f01602080910402602001604051908101604052809291908181526020018280546104a59061185f565b80156104f05780601f106104c7576101008083540402835291602001916104f0565b820191905f5260205f20905b8154815290600101906020018083116104d357829003601f168201915b505050505081565b5f8181526002602052604090205473ffffffffffffffffffffffffffffffffffffffff1633811480610559575073ffffffffffffffffffffffffffffffffffffffff81165f90815260056020908152604080832033845290915290205460ff165b6105c4576040517f08c379a000000000000000000000000000000000000000000000000000000000815260206004820152600e60248201527f4e4f545f415554484f52495a454400000000000000000000000000000000000060448201526064015b60405180910390fd5b5f8281526004602052604080822080547fffffffffffffffffffffffff00000000000000000000000000000000000000001673ffffffffffffffffffffffffffffffffffffffff87811691821790925591518593918516917f8c5be1e5ebec7d5bd14f71427d1e84f3dd0314c0f7b2291e5b200ac8c7c3b92591a4505050565b5f60016009541115610682576040517f8beb9d1600000000000000000000000000000000000000000000000000000000815260040160405180910390fd5b50600260095560085480610695816118dd565b600881905591506106a89050338261119b565b600160095590565b5f8181526002602052604090205473ffffffffffffffffffffffffffffffffffffffff84811691161461073f576040517f08c379a000000000000000000000000000000000000000000000000000000000815260206004820152600a60248201527f57524f4e475f46524f4d0000000000000000000000000000000000000000000060448201526064016105bb565b73ffffffffffffffffffffffffffffffffffffffff82166107bc576040517f08c379a000000000000000000000000000000000000000000000000000000000815260206004820152601160248201527f494e56414c49445f524543495049454e5400000000000000000000000000000060448201526064016105bb565b3373ffffffffffffffffffffffffffffffffffffffff8416148061080f575073ffffffffffffffffffffffffffffffffffffffff83165f90815260056020908152604080832033845290915290205460ff165b8061083c57505f8181526004602052604090205473ffffffffffffffffffffffffffffffffffffffff1633145b6108a2576040517f08c379a000000000000000000000000000000000000000000000000000000000815260206004820152600e60248201527f4e4f545f415554484f52495a454400000000000000000000000000000000000060448201526064016105bb565b73ffffffffffffffffffffffffffffffffffffffff8084165f81815260036020908152604080832080547fffffffffffffffffffffffffffffffffffffffffffffffffffffffffffffffff019055938616808352848320805460010190558583526002825284832080547fffffffffffffffffffffffff00000000000000000000000000000000000000009081168317909155600490925284832080549092169091559251849392917fddf252ad1be2c89b69c2b068fc378daa952ba7f163c4a11628f55a4df523b3ef91a4505050565b61097e8383836106b0565b73ffffffffffffffffffffffffffffffffffffffff82163b1580610a6e57506040517f150b7a020000000000000000000000000000000000000000000000000000000080825233600483015273ffffffffffffffffffffffffffffffffffffffff858116602484015260448301849052608060648401525f608484015290919084169063150b7a029060a4016020604051808303815f875af1158015610a26573d5f803e3d5ffd5b505050506040513d601f19601f82011682018060405250810190610a4a9190611914565b7fffffffff0000000000000000000000000000000000000000000000000000000016145b610ad4576040517f08c379a000000000000000000000000000000000000000000000000000000000815260206004820152601060248201527f554e534146455f524543495049454e540000000000000000000000000000000060448201526064016105bb565b505050565b5f80821180156104675750600854610af290600161192f565b821092915050565b5f610b0682600161192f565b9050600854811115610b52576008546040517f7ae596850000000000000000000000000000000000000000000000000000000081526105bb918391600401918252602082015260400190565b919050565b60065473ffffffffffffffffffffffffffffffffffffffff163314610bca576006546040517fa43d6ada00000000000000000000000000000000000000000000000000000000815233600482015273ffffffffffffffffffffffffffffffffffffffff90911660248201526044016105bb565b80515f03610c04576040517f7c946ed700000000000000000000000000000000000000000000000000000000815260040160405180910390fd5b6007610c108282611986565b507f5411e8ebf1636d9e83d5fc4900bf80cbac82e8790da2a4c94db4895e889eedf681604051610c409190611568565b60405180910390a150565b5f8181526002602052604090205473ffffffffffffffffffffffffffffffffffffffff1680610b52576040517f08c379a000000000000000000000000000000000000000000000000000000000815260206004820152600a60248201527f4e4f545f4d494e5445440000000000000000000000000000000000000000000060448201526064016105bb565b600780546104799061185f565b5f73ffffffffffffffffffffffffffffffffffffffff8216610d61576040517f08c379a000000000000000000000000000000000000000000000000000000000815260206004820152600c60248201527f5a45524f5f41444452455353000000000000000000000000000000000000000060448201526064016105bb565b5073ffffffffffffffffffffffffffffffffffffffff165f9081526003602052604090205490565b5f60016009541115610dc7576040517f8beb9d1600000000000000000000000000000000000000000000000000000000815260040160405180910390fd5b50600260095560085480610dda816118dd565b60088190559150610ded9050828261119b565b6001600955919050565b600180546104799061185f565b335f81815260056020908152604080832073ffffffffffffffffffffffffffffffffffffffff87168085529083529281902080547fffffffffffffffffffffffffffffffffffffffffffffffffffffffffffffff001686151590811790915590519081529192917f17307eab39ab6107e8899845ad3d59bd9653f200f220920489ca2b5937696c31910160405180910390a35050565b60065473ffffffffffffffffffffffffffffffffffffffff163314610f0d576006546040517fa43d6ada00000000000000000000000000000000000000000000000000000000815233600482015273ffffffffffffffffffffffffffffffffffffffff90911660248201526044016105bb565b73ffffffffffffffffffffffffffffffffffffffff8116610f5a576040517fd92e233d00000000000000000000000000000000000000000000000000000000815260040160405180910390fd5b600680547fffffffffffffffffffffffff00000000000000000000000000000000000000001673ffffffffffffffffffffffffffffffffffffffff83169081179091556040517f4ffd725fc4a22075e9ec71c59edf9c38cdeb588a91b24fc5b61388c5be41282b905f90a250565b610fd38585856106b0565b73ffffffffffffffffffffffffffffffffffffffff84163b15806110b257506040517f150b7a02000000000000000000000000000000000000000000000000000000008082529073ffffffffffffffffffffffffffffffffffffffff86169063150b7a029061104e9033908a90899089908990600401611aa2565b6020604051808303815f875af115801561106a573d5f803e3d5ffd5b505050506040513d601f19601f8201168201806040525081019061108e9190611914565b7fffffffff0000000000000000000000000000000000000000000000000000000016145b611118576040517f08c379a000000000000000000000000000000000000000000000000000000000815260206004820152601060248201527f554e534146455f524543495049454e540000000000000000000000000000000060448201526064016105bb565b5050505050565b606081158061112f575060085482115b15611169576040517f23f7828a000000000000000000000000000000000000000000000000000000008152600481018390526024016105bb565b6007611174836112fc565b604051602001611185929190611b1f565b6040516020818303038152906040529050919050565b6111a5828261135d565b73ffffffffffffffffffffffffffffffffffffffff82163b158061129257506040517f150b7a02000000000000000000000000000000000000000000000000000000008082523360048301525f60248301819052604483018490526080606484015260848301529073ffffffffffffffffffffffffffffffffffffffff84169063150b7a029060a4016020604051808303815f875af115801561124a573d5f803e3d5ffd5b505050506040513d601f19601f8201168201806040525081019061126e9190611914565b7fffffffff0000000000000000000000000000000000000000000000000000000016145b6112f8576040517f08c379a000000000000000000000000000000000000000000000000000000000815260206004820152601060248201527f554e534146455f524543495049454e540000000000000000000000000000000060448201526064016105bb565b5050565b606060a06040510180604052602081039150505f815280825b600183039250600a81066030018353600a90048061131557508190037fffffffffffffffffffffffffffffffffffffffffffffffffffffffffffffffe0909101908152919050565b73ffffffffffffffffffffffffffffffffffffffff82166113da576040517f08c379a000000000000000000000000000000000000000000000000000000000815260206004820152601160248201527f494e56414c49445f524543495049454e5400000000000000000000000000000060448201526064016105bb565b5f8181526002602052604090205473ffffffffffffffffffffffffffffffffffffffff1615611465576040517f08c379a000000000000000000000000000000000000000000000000000000000815260206004820152600e60248201527f414c52454144595f4d494e54454400000000000000000000000000000000000060448201526064016105bb565b73ffffffffffffffffffffffffffffffffffffffff82165f81815260036020908152604080832080546001019055848352600290915280822080547fffffffffffffffffffffffff0000000000000000000000000000000000000000168417905551839291907fddf252ad1be2c89b69c2b068fc378daa952ba7f163c4a11628f55a4df523b3ef908290a45050565b7fffffffff0000000000000000000000000000000000000000000000000000000081168114611521575f80fd5b50565b5f60208284031215611534575f80fd5b813561153f816114f4565b9392505050565b5f5b83811015611560578181015183820152602001611548565b50505f910152565b602081525f8251806020840152611586816040850160208701611546565b601f017fffffffffffffffffffffffffffffffffffffffffffffffffffffffffffffffe0169190910160400192915050565b5f602082840312156115c8575f80fd5b5035919050565b803573ffffffffffffffffffffffffffffffffffffffff81168114610b52575f80fd5b5f8060408385031215611603575f80fd5b61160c836115cf565b946020939093013593505050565b5f805f6060848603121561162c575f80fd5b611635846115cf565b9250611643602085016115cf565b9150604084013590509250925092565b7f4e487b71000000000000000000000000000000000000000000000000000000005f52604160045260245ffd5b5f60208284031215611690575f80fd5b813567ffffffffffffffff808211156116a7575f80fd5b818401915084601f8301126116ba575f80fd5b8135818111156116cc576116cc611653565b604051601f82017fffffffffffffffffffffffffffffffffffffffffffffffffffffffffffffffe0908116603f0116810190838211818310171561171257611712611653565b8160405282815287602084870101111561172a575f80fd5b826020860160208301375f928101602001929092525095945050505050565b5f60208284031215611759575f80fd5b61153f826115cf565b5f8060408385031215611773575f80fd5b61177c836115cf565b915060208301358015158114611790575f80fd5b809150509250929050565b5f805f805f608086880312156117af575f80fd5b6117b8866115cf565b94506117c6602087016115cf565b935060408601359250606086013567ffffffffffffffff808211156117e9575f80fd5b818801915088601f8301126117fc575f80fd5b81358181111561180a575f80fd5b89602082850101111561181b575f80fd5b9699959850939650602001949392505050565b5f806040838503121561183f575f80fd5b611848836115cf565b9150611856602084016115cf565b90509250929050565b600181811c9082168061187357607f821691505b6020821081036118aa577f4e487b71000000000000000000000000000000000000000000000000000000005f52602260045260245ffd5b50919050565b7f4e487b71000000000000000000000000000000000000000000000000000000005f52601160045260245ffd5b5f7fffffffffffffffffffffffffffffffffffffffffffffffffffffffffffffffff820361190d5761190d6118b0565b5060010190565b5f60208284031215611924575f80fd5b815161153f816114f4565b80820180821115610467576104676118b0565b601f821115610ad457805f5260205f20601f840160051c810160208510156119675750805b601f840160051c820191505b81811015611118575f8155600101611973565b815167ffffffffffffffff8111156119a0576119a0611653565b6119b4816119ae845461185f565b84611942565b602080601f831160018114611a06575f84156119d05750858301515b7fffffffffffffffffffffffffffffffffffffffffffffffffffffffffffffffff600386901b1c1916600185901b178555611a9a565b5f858152602081207fffffffffffffffffffffffffffffffffffffffffffffffffffffffffffffffe08616915b82811015611a5257888601518255948401946001909101908401611a33565b5085821015611a8e57878501517fffffffffffffffffffffffffffffffffffffffffffffffffffffffffffffffff600388901b60f8161c191681555b505060018460011b0185555b505050505050565b5f73ffffffffffffffffffffffffffffffffffffffff808816835280871660208401525084604083015260806060830152826080830152828460a08401375f60a0848401015260a07fffffffffffffffffffffffffffffffffffffffffffffffffffffffffffffffe0601f85011683010190509695505050505050565b5f808454611b2c8161185f565b60018281168015611b445760018114611b7757611ba3565b7fffffffffffffffffffffffffffffffffffffffffffffffffffffffffffffff0084168752821515830287019450611ba3565b885f526020805f205f5b85811015611b9a5781548a820152908401908201611b81565b50505082870194505b505050508351611bb7818360208801611546565b0194935050505056fea26469706673582212203fb3aee6597dd956a84cc1df9008737c80dc5ab85bbc8b569a45eb40ed0d0edf64736f6c63430008170033",
  "linkReferences": {},
  "deployedLinkReferences": {}
}